{
	"Fund_Me.sol": {
		"FundMe": {
			"abi": [
				{
					"inputs": [
						{
							"internalType": "address",
							"name": "",
							"type": "address"
						}
					],
					"name": "addressToAmountFunded",
					"outputs": [
						{
							"internalType": "uint256",
							"name": "",
							"type": "uint256"
						}
					],
					"stateMutability": "view",
					"type": "function"
				},
				{
					"inputs": [],
					"name": "fund",
					"outputs": [],
					"stateMutability": "payable",
					"type": "function"
				},
				{
					"inputs": [],
					"name": "getPrice",
					"outputs": [
						{
							"internalType": "uint256",
							"name": "",
							"type": "uint256"
						}
					],
					"stateMutability": "view",
					"type": "function"
				},
				{
					"inputs": [],
					"name": "getVersion",
					"outputs": [
						{
							"internalType": "uint256",
							"name": "",
							"type": "uint256"
						}
					],
					"stateMutability": "view",
					"type": "function"
				},
				{
					"inputs": [
						{
							"internalType": "uint256",
							"name": "ethAmount",
							"type": "uint256"
						}
					],
					"name": "gretConversionRate",
					"outputs": [
						{
							"internalType": "uint256",
							"name": "",
							"type": "uint256"
						}
					],
					"stateMutability": "view",
					"type": "function"
				}
			],
			"devdoc": {
				"kind": "dev",
				"methods": {},
				"version": 1
			},
			"evm": {
				"assembly": "    /* \"Fund_Me.sol\":994:2034  contract FundMe {\r... */\n  mstore(0x40, 0x80)\n  callvalue\n  dup1\n  iszero\n  tag_1\n  jumpi\n  0x00\n  dup1\n  revert\ntag_1:\n  pop\n  dataSize(sub_0)\n  dup1\n  dataOffset(sub_0)\n  0x00\n  codecopy\n  0x00\n  return\nstop\n\nsub_0: assembly {\n        /* \"Fund_Me.sol\":994:2034  contract FundMe {\r... */\n      mstore(0x40, 0x80)\n      jumpi(tag_1, lt(calldatasize, 0x04))\n      shr(0xe0, calldataload(0x00))\n      dup1\n      0x0d8e6e2c\n      eq\n      tag_2\n      jumpi\n      dup1\n      0x3e47d6f3\n      eq\n      tag_3\n      jumpi\n      dup1\n      0x6ce0a812\n      eq\n      tag_4\n      jumpi\n      dup1\n      0x98d5fdca\n      eq\n      tag_5\n      jumpi\n      dup1\n      0xb60d4288\n      eq\n      tag_6\n      jumpi\n    tag_1:\n      0x00\n      dup1\n      revert\n        /* \"Fund_Me.sol\":1308:1513  function getVersion() public view returns(uint256){\r... */\n    tag_2:\n      callvalue\n      dup1\n      iszero\n      tag_7\n      jumpi\n      0x00\n      dup1\n      revert\n    tag_7:\n      pop\n      tag_8\n      tag_9\n      jump\t// in\n    tag_8:\n      mload(0x40)\n      tag_10\n      swap2\n      swap1\n      tag_11\n      jump\t// in\n    tag_10:\n      mload(0x40)\n      dup1\n      swap2\n      sub\n      swap1\n      return\n        /* \"Fund_Me.sol\":1036:1092  mapping(address => uint256) public addressToAmountFunded */\n    tag_3:\n      callvalue\n      dup1\n      iszero\n      tag_12\n      jumpi\n      0x00\n      dup1\n      revert\n    tag_12:\n      pop\n      tag_13\n      0x04\n      dup1\n      calldatasize\n      sub\n      dup2\n      add\n      swap1\n      tag_14\n      swap2\n      swap1\n      tag_15\n      jump\t// in\n    tag_14:\n      tag_16\n      jump\t// in\n    tag_13:\n      mload(0x40)\n      tag_17\n      swap2\n      swap1\n      tag_11\n      jump\t// in\n    tag_17:\n      mload(0x40)\n      dup1\n      swap2\n      sub\n      swap1\n      return\n        /* \"Fund_Me.sol\":1786:2018  function gretConversionRate(uint256 ethAmount) public view returns(uint256){\r... */\n    tag_4:\n      callvalue\n      dup1\n      iszero\n      tag_18\n      jumpi\n      0x00\n      dup1\n      revert\n    tag_18:\n      pop\n      tag_19\n      0x04\n      dup1\n      calldatasize\n      sub\n      dup2\n      add\n      swap1\n      tag_20\n      swap2\n      swap1\n      tag_21\n      jump\t// in\n    tag_20:\n      tag_22\n      jump\t// in\n    tag_19:\n      mload(0x40)\n      tag_23\n      swap2\n      swap1\n      tag_11\n      jump\t// in\n    tag_23:\n      mload(0x40)\n      dup1\n      swap2\n      sub\n      swap1\n      return\n        /* \"Fund_Me.sol\":1519:1780  function getPrice() public view returns(uint256){\r... */\n    tag_5:\n      callvalue\n      dup1\n      iszero\n      tag_24\n      jumpi\n      0x00\n      dup1\n      revert\n    tag_24:\n      pop\n      tag_25\n      tag_26\n      jump\t// in\n    tag_25:\n      mload(0x40)\n      tag_27\n      swap2\n      swap1\n      tag_11\n      jump\t// in\n    tag_27:\n      mload(0x40)\n      dup1\n      swap2\n      sub\n      swap1\n      return\n        /* \"Fund_Me.sol\":1101:1302  function fund() public payable {\r... */\n    tag_6:\n      tag_28\n      tag_29\n      jump\t// in\n    tag_28:\n      stop\n        /* \"Fund_Me.sol\":1308:1513  function getVersion() public view returns(uint256){\r... */\n    tag_9:\n        /* \"Fund_Me.sol\":1350:1357  uint256 */\n      0x00\n        /* \"Fund_Me.sol\":1369:1400  AggregatorV3Interface priceFeed */\n      dup1\n        /* \"Fund_Me.sol\":1425:1467  0x8A753747A1Fa494EC906cE90E9f37563A8AF630e */\n      0x8a753747a1fa494ec906ce90e9f37563a8af630e\n        /* \"Fund_Me.sol\":1369:1468  AggregatorV3Interface priceFeed = AggregatorV3Interface(0x8A753747A1Fa494EC906cE90E9f37563A8AF630e) */\n      swap1\n      pop\n        /* \"Fund_Me.sol\":1486:1495  priceFeed */\n      dup1\n        /* \"Fund_Me.sol\":1486:1503  priceFeed.version */\n      0xffffffffffffffffffffffffffffffffffffffff\n      and\n      0x54fd4d50\n        /* \"Fund_Me.sol\":1486:1505  priceFeed.version() */\n      mload(0x40)\n      dup2\n      0xffffffff\n      and\n      0xe0\n      shl\n      dup2\n      mstore\n      0x04\n      add\n      0x20\n      mload(0x40)\n      dup1\n      dup4\n      sub\n      dup2\n      dup7\n      dup1\n      extcodesize\n      iszero\n      dup1\n      iszero\n      tag_31\n      jumpi\n      0x00\n      dup1\n      revert\n    tag_31:\n      pop\n      gas\n      staticcall\n      iszero\n      dup1\n      iszero\n      tag_33\n      jumpi\n      returndatasize\n      0x00\n      dup1\n      returndatacopy\n      revert(0x00, returndatasize)\n    tag_33:\n      pop\n      pop\n      pop\n      pop\n      mload(0x40)\n      returndatasize\n      not(0x1f)\n      0x1f\n      dup3\n      add\n      and\n      dup3\n      add\n      dup1\n      0x40\n      mstore\n      pop\n      dup2\n      add\n      swap1\n      tag_34\n      swap2\n      swap1\n      tag_35\n      jump\t// in\n    tag_34:\n        /* \"Fund_Me.sol\":1479:1505  return priceFeed.version() */\n      swap2\n      pop\n      pop\n        /* \"Fund_Me.sol\":1308:1513  function getVersion() public view returns(uint256){\r... */\n      swap1\n      jump\t// out\n        /* \"Fund_Me.sol\":1036:1092  mapping(address => uint256) public addressToAmountFunded */\n    tag_16:\n      mstore(0x20, 0x00)\n      dup1\n      0x00\n      mstore\n      keccak256(0x00, 0x40)\n      0x00\n      swap2\n      pop\n      swap1\n      pop\n      sload\n      dup2\n      jump\t// out\n        /* \"Fund_Me.sol\":1786:2018  function gretConversionRate(uint256 ethAmount) public view returns(uint256){\r... */\n    tag_22:\n        /* \"Fund_Me.sol\":1853:1860  uint256 */\n      0x00\n        /* \"Fund_Me.sol\":1872:1888  uint256 ethPrice */\n      dup1\n        /* \"Fund_Me.sol\":1891:1901  getPrice() */\n      tag_37\n        /* \"Fund_Me.sol\":1891:1899  getPrice */\n      tag_26\n        /* \"Fund_Me.sol\":1891:1901  getPrice() */\n      jump\t// in\n    tag_37:\n        /* \"Fund_Me.sol\":1872:1901  uint256 ethPrice = getPrice() */\n      swap1\n      pop\n        /* \"Fund_Me.sol\":1912:1932  uint256 ethAmountUsd */\n      0x00\n        /* \"Fund_Me.sol\":1959:1978  1000000000000000000 */\n      0x0de0b6b3a7640000\n        /* \"Fund_Me.sol\":1947:1956  ethAmount */\n      dup5\n        /* \"Fund_Me.sol\":1936:1944  ethPrice */\n      dup4\n        /* \"Fund_Me.sol\":1936:1956  ethPrice * ethAmount */\n      tag_38\n      swap2\n      swap1\n      tag_39\n      jump\t// in\n    tag_38:\n        /* \"Fund_Me.sol\":1935:1978  (ethPrice * ethAmount )/1000000000000000000 */\n      tag_40\n      swap2\n      swap1\n      tag_41\n      jump\t// in\n    tag_40:\n        /* \"Fund_Me.sol\":1912:1978  uint256 ethAmountUsd = (ethPrice * ethAmount )/1000000000000000000 */\n      swap1\n      pop\n        /* \"Fund_Me.sol\":1996:2008  ethAmountUsd */\n      dup1\n        /* \"Fund_Me.sol\":1989:2008  return ethAmountUsd */\n      swap3\n      pop\n      pop\n      pop\n        /* \"Fund_Me.sol\":1786:2018  function gretConversionRate(uint256 ethAmount) public view returns(uint256){\r... */\n      swap2\n      swap1\n      pop\n      jump\t// out\n        /* \"Fund_Me.sol\":1519:1780  function getPrice() public view returns(uint256){\r... */\n    tag_26:\n        /* \"Fund_Me.sol\":1559:1566  uint256 */\n      0x00\n        /* \"Fund_Me.sol\":1578:1609  AggregatorV3Interface priceFeed */\n      dup1\n        /* \"Fund_Me.sol\":1634:1676  0x8A753747A1Fa494EC906cE90E9f37563A8AF630e */\n      0x8a753747a1fa494ec906ce90e9f37563a8af630e\n        /* \"Fund_Me.sol\":1578:1677  AggregatorV3Interface priceFeed = AggregatorV3Interface(0x8A753747A1Fa494EC906cE90E9f37563A8AF630e) */\n      swap1\n      pop\n        /* \"Fund_Me.sol\":1690:1703  int256 answer */\n      0x00\n        /* \"Fund_Me.sol\":1710:1719  priceFeed */\n      dup2\n        /* \"Fund_Me.sol\":1710:1735  priceFeed.latestRoundData */\n      0xffffffffffffffffffffffffffffffffffffffff\n      and\n      0xfeaf968c\n        /* \"Fund_Me.sol\":1710:1737  priceFeed.latestRoundData() */\n      mload(0x40)\n      dup2\n      0xffffffff\n      and\n      0xe0\n      shl\n      dup2\n      mstore\n      0x04\n      add\n      0xa0\n      mload(0x40)\n      dup1\n      dup4\n      sub\n      dup2\n      dup7\n      dup1\n      extcodesize\n      iszero\n      dup1\n      iszero\n      tag_43\n      jumpi\n      0x00\n      dup1\n      revert\n    tag_43:\n      pop\n      gas\n      staticcall\n      iszero\n      dup1\n      iszero\n      tag_45\n      jumpi\n      returndatasize\n      0x00\n      dup1\n      returndatacopy\n      revert(0x00, returndatasize)\n    tag_45:\n      pop\n      pop\n      pop\n      pop\n      mload(0x40)\n      returndatasize\n      not(0x1f)\n      0x1f\n      dup3\n      add\n      and\n      dup3\n      add\n      dup1\n      0x40\n      mstore\n      pop\n      dup2\n      add\n      swap1\n      tag_46\n      swap2\n      swap1\n      tag_47\n      jump\t// in\n    tag_46:\n        /* \"Fund_Me.sol\":1688:1737  (,int256 answer,,,) = priceFeed.latestRoundData() */\n      pop\n      pop\n      pop\n      swap2\n      pop\n      pop\n        /* \"Fund_Me.sol\":1763:1769  answer */\n      dup1\n        /* \"Fund_Me.sol\":1748:1770  return uint256(answer) */\n      swap3\n      pop\n      pop\n      pop\n        /* \"Fund_Me.sol\":1519:1780  function getPrice() public view returns(uint256){\r... */\n      swap1\n      jump\t// out\n        /* \"Fund_Me.sol\":1101:1302  function fund() public payable {\r... */\n    tag_29:\n        /* \"Fund_Me.sol\":1180:1189  msg.value */\n      callvalue\n        /* \"Fund_Me.sol\":1143:1164  addressToAmountFunded */\n      0x00\n        /* \"Fund_Me.sol\":1143:1176  addressToAmountFunded[msg.sender] */\n      dup1\n        /* \"Fund_Me.sol\":1165:1175  msg.sender */\n      caller\n        /* \"Fund_Me.sol\":1143:1176  addressToAmountFunded[msg.sender] */\n      0xffffffffffffffffffffffffffffffffffffffff\n      and\n      0xffffffffffffffffffffffffffffffffffffffff\n      and\n      dup2\n      mstore\n      0x20\n      add\n      swap1\n      dup2\n      mstore\n      0x20\n      add\n      0x00\n      keccak256\n      0x00\n        /* \"Fund_Me.sol\":1143:1189  addressToAmountFunded[msg.sender] += msg.value */\n      dup3\n      dup3\n      sload\n      tag_49\n      swap2\n      swap1\n      tag_50\n      jump\t// in\n    tag_49:\n      swap3\n      pop\n      pop\n      dup2\n      swap1\n      sstore\n      pop\n        /* \"Fund_Me.sol\":1101:1302  function fund() public payable {\r... */\n      jump\t// out\n        /* \"#utility.yul\":7:146   */\n    tag_52:\n        /* \"#utility.yul\":53:58   */\n      0x00\n        /* \"#utility.yul\":91:97   */\n      dup2\n        /* \"#utility.yul\":78:98   */\n      calldataload\n        /* \"#utility.yul\":69:98   */\n      swap1\n      pop\n        /* \"#utility.yul\":107:140   */\n      tag_54\n        /* \"#utility.yul\":134:139   */\n      dup2\n        /* \"#utility.yul\":107:140   */\n      tag_55\n      jump\t// in\n    tag_54:\n        /* \"#utility.yul\":59:146   */\n      swap3\n      swap2\n      pop\n      pop\n      jump\t// out\n        /* \"#utility.yul\":152:293   */\n    tag_56:\n        /* \"#utility.yul\":208:213   */\n      0x00\n        /* \"#utility.yul\":239:245   */\n      dup2\n        /* \"#utility.yul\":233:246   */\n      mload\n        /* \"#utility.yul\":224:246   */\n      swap1\n      pop\n        /* \"#utility.yul\":255:287   */\n      tag_58\n        /* \"#utility.yul\":281:286   */\n      dup2\n        /* \"#utility.yul\":255:287   */\n      tag_59\n      jump\t// in\n    tag_58:\n        /* \"#utility.yul\":214:293   */\n      swap3\n      swap2\n      pop\n      pop\n      jump\t// out\n        /* \"#utility.yul\":299:438   */\n    tag_60:\n        /* \"#utility.yul\":345:350   */\n      0x00\n        /* \"#utility.yul\":383:389   */\n      dup2\n        /* \"#utility.yul\":370:390   */\n      calldataload\n        /* \"#utility.yul\":361:390   */\n      swap1\n      pop\n        /* \"#utility.yul\":399:432   */\n      tag_62\n        /* \"#utility.yul\":426:431   */\n      dup2\n        /* \"#utility.yul\":399:432   */\n      tag_63\n      jump\t// in\n    tag_62:\n        /* \"#utility.yul\":351:438   */\n      swap3\n      swap2\n      pop\n      pop\n      jump\t// out\n        /* \"#utility.yul\":444:587   */\n    tag_64:\n        /* \"#utility.yul\":501:506   */\n      0x00\n        /* \"#utility.yul\":532:538   */\n      dup2\n        /* \"#utility.yul\":526:539   */\n      mload\n        /* \"#utility.yul\":517:539   */\n      swap1\n      pop\n        /* \"#utility.yul\":548:581   */\n      tag_66\n        /* \"#utility.yul\":575:580   */\n      dup2\n        /* \"#utility.yul\":548:581   */\n      tag_63\n      jump\t// in\n    tag_66:\n        /* \"#utility.yul\":507:587   */\n      swap3\n      swap2\n      pop\n      pop\n      jump\t// out\n        /* \"#utility.yul\":593:734   */\n    tag_67:\n        /* \"#utility.yul\":649:654   */\n      0x00\n        /* \"#utility.yul\":680:686   */\n      dup2\n        /* \"#utility.yul\":674:687   */\n      mload\n        /* \"#utility.yul\":665:687   */\n      swap1\n      pop\n        /* \"#utility.yul\":696:728   */\n      tag_69\n        /* \"#utility.yul\":722:727   */\n      dup2\n        /* \"#utility.yul\":696:728   */\n      tag_70\n      jump\t// in\n    tag_69:\n        /* \"#utility.yul\":655:734   */\n      swap3\n      swap2\n      pop\n      pop\n      jump\t// out\n        /* \"#utility.yul\":740:1069   */\n    tag_15:\n        /* \"#utility.yul\":799:805   */\n      0x00\n        /* \"#utility.yul\":848:850   */\n      0x20\n        /* \"#utility.yul\":836:845   */\n      dup3\n        /* \"#utility.yul\":827:834   */\n      dup5\n        /* \"#utility.yul\":823:846   */\n      sub\n        /* \"#utility.yul\":819:851   */\n      slt\n        /* \"#utility.yul\":816:818   */\n      iszero\n      tag_72\n      jumpi\n        /* \"#utility.yul\":854:933   */\n      tag_73\n      tag_74\n      jump\t// in\n    tag_73:\n        /* \"#utility.yul\":816:818   */\n    tag_72:\n        /* \"#utility.yul\":974:975   */\n      0x00\n        /* \"#utility.yul\":999:1052   */\n      tag_75\n        /* \"#utility.yul\":1044:1051   */\n      dup5\n        /* \"#utility.yul\":1035:1041   */\n      dup3\n        /* \"#utility.yul\":1024:1033   */\n      dup6\n        /* \"#utility.yul\":1020:1042   */\n      add\n        /* \"#utility.yul\":999:1052   */\n      tag_52\n      jump\t// in\n    tag_75:\n        /* \"#utility.yul\":989:1052   */\n      swap2\n      pop\n        /* \"#utility.yul\":945:1062   */\n      pop\n        /* \"#utility.yul\":806:1069   */\n      swap3\n      swap2\n      pop\n      pop\n      jump\t// out\n        /* \"#utility.yul\":1075:1404   */\n    tag_21:\n        /* \"#utility.yul\":1134:1140   */\n      0x00\n        /* \"#utility.yul\":1183:1185   */\n      0x20\n        /* \"#utility.yul\":1171:1180   */\n      dup3\n        /* \"#utility.yul\":1162:1169   */\n      dup5\n        /* \"#utility.yul\":1158:1181   */\n      sub\n        /* \"#utility.yul\":1154:1186   */\n      slt\n        /* \"#utility.yul\":1151:1153   */\n      iszero\n      tag_77\n      jumpi\n        /* \"#utility.yul\":1189:1268   */\n      tag_78\n      tag_74\n      jump\t// in\n    tag_78:\n        /* \"#utility.yul\":1151:1153   */\n    tag_77:\n        /* \"#utility.yul\":1309:1310   */\n      0x00\n        /* \"#utility.yul\":1334:1387   */\n      tag_79\n        /* \"#utility.yul\":1379:1386   */\n      dup5\n        /* \"#utility.yul\":1370:1376   */\n      dup3\n        /* \"#utility.yul\":1359:1368   */\n      dup6\n        /* \"#utility.yul\":1355:1377   */\n      add\n        /* \"#utility.yul\":1334:1387   */\n      tag_60\n      jump\t// in\n    tag_79:\n        /* \"#utility.yul\":1324:1387   */\n      swap2\n      pop\n        /* \"#utility.yul\":1280:1397   */\n      pop\n        /* \"#utility.yul\":1141:1404   */\n      swap3\n      swap2\n      pop\n      pop\n      jump\t// out\n        /* \"#utility.yul\":1410:1761   */\n    tag_35:\n        /* \"#utility.yul\":1480:1486   */\n      0x00\n        /* \"#utility.yul\":1529:1531   */\n      0x20\n        /* \"#utility.yul\":1517:1526   */\n      dup3\n        /* \"#utility.yul\":1508:1515   */\n      dup5\n        /* \"#utility.yul\":1504:1527   */\n      sub\n        /* \"#utility.yul\":1500:1532   */\n      slt\n        /* \"#utility.yul\":1497:1499   */\n      iszero\n      tag_81\n      jumpi\n        /* \"#utility.yul\":1535:1614   */\n      tag_82\n      tag_74\n      jump\t// in\n    tag_82:\n        /* \"#utility.yul\":1497:1499   */\n    tag_81:\n        /* \"#utility.yul\":1655:1656   */\n      0x00\n        /* \"#utility.yul\":1680:1744   */\n      tag_83\n        /* \"#utility.yul\":1736:1743   */\n      dup5\n        /* \"#utility.yul\":1727:1733   */\n      dup3\n        /* \"#utility.yul\":1716:1725   */\n      dup6\n        /* \"#utility.yul\":1712:1734   */\n      add\n        /* \"#utility.yul\":1680:1744   */\n      tag_64\n      jump\t// in\n    tag_83:\n        /* \"#utility.yul\":1670:1744   */\n      swap2\n      pop\n        /* \"#utility.yul\":1626:1754   */\n      pop\n        /* \"#utility.yul\":1487:1761   */\n      swap3\n      swap2\n      pop\n      pop\n      jump\t// out\n        /* \"#utility.yul\":1767:2738   */\n    tag_47:\n        /* \"#utility.yul\":1870:1876   */\n      0x00\n        /* \"#utility.yul\":1878:1884   */\n      dup1\n        /* \"#utility.yul\":1886:1892   */\n      0x00\n        /* \"#utility.yul\":1894:1900   */\n      dup1\n        /* \"#utility.yul\":1902:1908   */\n      0x00\n        /* \"#utility.yul\":1951:1954   */\n      0xa0\n        /* \"#utility.yul\":1939:1948   */\n      dup7\n        /* \"#utility.yul\":1930:1937   */\n      dup9\n        /* \"#utility.yul\":1926:1949   */\n      sub\n        /* \"#utility.yul\":1922:1955   */\n      slt\n        /* \"#utility.yul\":1919:1921   */\n      iszero\n      tag_85\n      jumpi\n        /* \"#utility.yul\":1958:2037   */\n      tag_86\n      tag_74\n      jump\t// in\n    tag_86:\n        /* \"#utility.yul\":1919:1921   */\n    tag_85:\n        /* \"#utility.yul\":2078:2079   */\n      0x00\n        /* \"#utility.yul\":2103:2166   */\n      tag_87\n        /* \"#utility.yul\":2158:2165   */\n      dup9\n        /* \"#utility.yul\":2149:2155   */\n      dup3\n        /* \"#utility.yul\":2138:2147   */\n      dup10\n        /* \"#utility.yul\":2134:2156   */\n      add\n        /* \"#utility.yul\":2103:2166   */\n      tag_67\n      jump\t// in\n    tag_87:\n        /* \"#utility.yul\":2093:2166   */\n      swap6\n      pop\n        /* \"#utility.yul\":2049:2176   */\n      pop\n        /* \"#utility.yul\":2215:2217   */\n      0x20\n        /* \"#utility.yul\":2241:2304   */\n      tag_88\n        /* \"#utility.yul\":2296:2303   */\n      dup9\n        /* \"#utility.yul\":2287:2293   */\n      dup3\n        /* \"#utility.yul\":2276:2285   */\n      dup10\n        /* \"#utility.yul\":2272:2294   */\n      add\n        /* \"#utility.yul\":2241:2304   */\n      tag_56\n      jump\t// in\n    tag_88:\n        /* \"#utility.yul\":2231:2304   */\n      swap5\n      pop\n        /* \"#utility.yul\":2186:2314   */\n      pop\n        /* \"#utility.yul\":2353:2355   */\n      0x40\n        /* \"#utility.yul\":2379:2443   */\n      tag_89\n        /* \"#utility.yul\":2435:2442   */\n      dup9\n        /* \"#utility.yul\":2426:2432   */\n      dup3\n        /* \"#utility.yul\":2415:2424   */\n      dup10\n        /* \"#utility.yul\":2411:2433   */\n      add\n        /* \"#utility.yul\":2379:2443   */\n      tag_64\n      jump\t// in\n    tag_89:\n        /* \"#utility.yul\":2369:2443   */\n      swap4\n      pop\n        /* \"#utility.yul\":2324:2453   */\n      pop\n        /* \"#utility.yul\":2492:2494   */\n      0x60\n        /* \"#utility.yul\":2518:2582   */\n      tag_90\n        /* \"#utility.yul\":2574:2581   */\n      dup9\n        /* \"#utility.yul\":2565:2571   */\n      dup3\n        /* \"#utility.yul\":2554:2563   */\n      dup10\n        /* \"#utility.yul\":2550:2572   */\n      add\n        /* \"#utility.yul\":2518:2582   */\n      tag_64\n      jump\t// in\n    tag_90:\n        /* \"#utility.yul\":2508:2582   */\n      swap3\n      pop\n        /* \"#utility.yul\":2463:2592   */\n      pop\n        /* \"#utility.yul\":2631:2634   */\n      0x80\n        /* \"#utility.yul\":2658:2721   */\n      tag_91\n        /* \"#utility.yul\":2713:2720   */\n      dup9\n        /* \"#utility.yul\":2704:2710   */\n      dup3\n        /* \"#utility.yul\":2693:2702   */\n      dup10\n        /* \"#utility.yul\":2689:2711   */\n      add\n        /* \"#utility.yul\":2658:2721   */\n      tag_67\n      jump\t// in\n    tag_91:\n        /* \"#utility.yul\":2648:2721   */\n      swap2\n      pop\n        /* \"#utility.yul\":2602:2731   */\n      pop\n        /* \"#utility.yul\":1909:2738   */\n      swap3\n      swap6\n      pop\n      swap3\n      swap6\n      swap1\n      swap4\n      pop\n      jump\t// out\n        /* \"#utility.yul\":2744:2862   */\n    tag_92:\n        /* \"#utility.yul\":2831:2855   */\n      tag_94\n        /* \"#utility.yul\":2849:2854   */\n      dup2\n        /* \"#utility.yul\":2831:2855   */\n      tag_95\n      jump\t// in\n    tag_94:\n        /* \"#utility.yul\":2826:2829   */\n      dup3\n        /* \"#utility.yul\":2819:2856   */\n      mstore\n        /* \"#utility.yul\":2809:2862   */\n      pop\n      pop\n      jump\t// out\n        /* \"#utility.yul\":2868:3090   */\n    tag_11:\n        /* \"#utility.yul\":2961:2965   */\n      0x00\n        /* \"#utility.yul\":2999:3001   */\n      0x20\n        /* \"#utility.yul\":2988:2997   */\n      dup3\n        /* \"#utility.yul\":2984:3002   */\n      add\n        /* \"#utility.yul\":2976:3002   */\n      swap1\n      pop\n        /* \"#utility.yul\":3012:3083   */\n      tag_97\n        /* \"#utility.yul\":3080:3081   */\n      0x00\n        /* \"#utility.yul\":3069:3078   */\n      dup4\n        /* \"#utility.yul\":3065:3082   */\n      add\n        /* \"#utility.yul\":3056:3062   */\n      dup5\n        /* \"#utility.yul\":3012:3083   */\n      tag_92\n      jump\t// in\n    tag_97:\n        /* \"#utility.yul\":2966:3090   */\n      swap3\n      swap2\n      pop\n      pop\n      jump\t// out\n        /* \"#utility.yul\":3177:3482   */\n    tag_50:\n        /* \"#utility.yul\":3217:3220   */\n      0x00\n        /* \"#utility.yul\":3236:3256   */\n      tag_101\n        /* \"#utility.yul\":3254:3255   */\n      dup3\n        /* \"#utility.yul\":3236:3256   */\n      tag_95\n      jump\t// in\n    tag_101:\n        /* \"#utility.yul\":3231:3256   */\n      swap2\n      pop\n        /* \"#utility.yul\":3270:3290   */\n      tag_102\n        /* \"#utility.yul\":3288:3289   */\n      dup4\n        /* \"#utility.yul\":3270:3290   */\n      tag_95\n      jump\t// in\n    tag_102:\n        /* \"#utility.yul\":3265:3290   */\n      swap3\n      pop\n        /* \"#utility.yul\":3424:3425   */\n      dup3\n        /* \"#utility.yul\":3356:3422   */\n      0xffffffffffffffffffffffffffffffffffffffffffffffffffffffffffffffff\n        /* \"#utility.yul\":3352:3426   */\n      sub\n        /* \"#utility.yul\":3349:3350   */\n      dup3\n        /* \"#utility.yul\":3346:3427   */\n      gt\n        /* \"#utility.yul\":3343:3345   */\n      iszero\n      tag_103\n      jumpi\n        /* \"#utility.yul\":3430:3448   */\n      tag_104\n      tag_105\n      jump\t// in\n    tag_104:\n        /* \"#utility.yul\":3343:3345   */\n    tag_103:\n        /* \"#utility.yul\":3474:3475   */\n      dup3\n        /* \"#utility.yul\":3471:3472   */\n      dup3\n        /* \"#utility.yul\":3467:3476   */\n      add\n        /* \"#utility.yul\":3460:3476   */\n      swap1\n      pop\n        /* \"#utility.yul\":3221:3482   */\n      swap3\n      swap2\n      pop\n      pop\n      jump\t// out\n        /* \"#utility.yul\":3488:3673   */\n    tag_41:\n        /* \"#utility.yul\":3528:3529   */\n      0x00\n        /* \"#utility.yul\":3545:3565   */\n      tag_107\n        /* \"#utility.yul\":3563:3564   */\n      dup3\n        /* \"#utility.yul\":3545:3565   */\n      tag_95\n      jump\t// in\n    tag_107:\n        /* \"#utility.yul\":3540:3565   */\n      swap2\n      pop\n        /* \"#utility.yul\":3579:3599   */\n      tag_108\n        /* \"#utility.yul\":3597:3598   */\n      dup4\n        /* \"#utility.yul\":3579:3599   */\n      tag_95\n      jump\t// in\n    tag_108:\n        /* \"#utility.yul\":3574:3599   */\n      swap3\n      pop\n        /* \"#utility.yul\":3618:3619   */\n      dup3\n        /* \"#utility.yul\":3608:3610   */\n      tag_109\n      jumpi\n        /* \"#utility.yul\":3623:3641   */\n      tag_110\n      tag_111\n      jump\t// in\n    tag_110:\n        /* \"#utility.yul\":3608:3610   */\n    tag_109:\n        /* \"#utility.yul\":3665:3666   */\n      dup3\n        /* \"#utility.yul\":3662:3663   */\n      dup3\n        /* \"#utility.yul\":3658:3667   */\n      div\n        /* \"#utility.yul\":3653:3667   */\n      swap1\n      pop\n        /* \"#utility.yul\":3530:3673   */\n      swap3\n      swap2\n      pop\n      pop\n      jump\t// out\n        /* \"#utility.yul\":3679:4027   */\n    tag_39:\n        /* \"#utility.yul\":3719:3726   */\n      0x00\n        /* \"#utility.yul\":3742:3762   */\n      tag_113\n        /* \"#utility.yul\":3760:3761   */\n      dup3\n        /* \"#utility.yul\":3742:3762   */\n      tag_95\n      jump\t// in\n    tag_113:\n        /* \"#utility.yul\":3737:3762   */\n      swap2\n      pop\n        /* \"#utility.yul\":3776:3796   */\n      tag_114\n        /* \"#utility.yul\":3794:3795   */\n      dup4\n        /* \"#utility.yul\":3776:3796   */\n      tag_95\n      jump\t// in\n    tag_114:\n        /* \"#utility.yul\":3771:3796   */\n      swap3\n      pop\n        /* \"#utility.yul\":3964:3965   */\n      dup2\n        /* \"#utility.yul\":3896:3962   */\n      0xffffffffffffffffffffffffffffffffffffffffffffffffffffffffffffffff\n        /* \"#utility.yul\":3892:3966   */\n      div\n        /* \"#utility.yul\":3889:3890   */\n      dup4\n        /* \"#utility.yul\":3886:3967   */\n      gt\n        /* \"#utility.yul\":3881:3882   */\n      dup3\n        /* \"#utility.yul\":3874:3883   */\n      iszero\n        /* \"#utility.yul\":3867:3884   */\n      iszero\n        /* \"#utility.yul\":3863:3968   */\n      and\n        /* \"#utility.yul\":3860:3862   */\n      iszero\n      tag_115\n      jumpi\n        /* \"#utility.yul\":3971:3989   */\n      tag_116\n      tag_105\n      jump\t// in\n    tag_116:\n        /* \"#utility.yul\":3860:3862   */\n    tag_115:\n        /* \"#utility.yul\":4019:4020   */\n      dup3\n        /* \"#utility.yul\":4016:4017   */\n      dup3\n        /* \"#utility.yul\":4012:4021   */\n      mul\n        /* \"#utility.yul\":4001:4021   */\n      swap1\n      pop\n        /* \"#utility.yul\":3727:4027   */\n      swap3\n      swap2\n      pop\n      pop\n      jump\t// out\n        /* \"#utility.yul\":4033:4129   */\n    tag_117:\n        /* \"#utility.yul\":4070:4077   */\n      0x00\n        /* \"#utility.yul\":4099:4123   */\n      tag_119\n        /* \"#utility.yul\":4117:4122   */\n      dup3\n        /* \"#utility.yul\":4099:4123   */\n      tag_120\n      jump\t// in\n    tag_119:\n        /* \"#utility.yul\":4088:4123   */\n      swap1\n      pop\n        /* \"#utility.yul\":4078:4129   */\n      swap2\n      swap1\n      pop\n      jump\t// out\n        /* \"#utility.yul\":4135:4211   */\n    tag_121:\n        /* \"#utility.yul\":4171:4178   */\n      0x00\n        /* \"#utility.yul\":4200:4205   */\n      dup2\n        /* \"#utility.yul\":4189:4205   */\n      swap1\n      pop\n        /* \"#utility.yul\":4179:4211   */\n      swap2\n      swap1\n      pop\n      jump\t// out\n        /* \"#utility.yul\":4217:4343   */\n    tag_120:\n        /* \"#utility.yul\":4254:4261   */\n      0x00\n        /* \"#utility.yul\":4294:4336   */\n      0xffffffffffffffffffffffffffffffffffffffff\n        /* \"#utility.yul\":4287:4292   */\n      dup3\n        /* \"#utility.yul\":4283:4337   */\n      and\n        /* \"#utility.yul\":4272:4337   */\n      swap1\n      pop\n        /* \"#utility.yul\":4262:4343   */\n      swap2\n      swap1\n      pop\n      jump\t// out\n        /* \"#utility.yul\":4349:4426   */\n    tag_95:\n        /* \"#utility.yul\":4386:4393   */\n      0x00\n        /* \"#utility.yul\":4415:4420   */\n      dup2\n        /* \"#utility.yul\":4404:4420   */\n      swap1\n      pop\n        /* \"#utility.yul\":4394:4426   */\n      swap2\n      swap1\n      pop\n      jump\t// out\n        /* \"#utility.yul\":4432:4537   */\n    tag_125:\n        /* \"#utility.yul\":4468:4475   */\n      0x00\n        /* \"#utility.yul\":4508:4530   */\n      0xffffffffffffffffffff\n        /* \"#utility.yul\":4501:4506   */\n      dup3\n        /* \"#utility.yul\":4497:4531   */\n      and\n        /* \"#utility.yul\":4486:4531   */\n      swap1\n      pop\n        /* \"#utility.yul\":4476:4537   */\n      swap2\n      swap1\n      pop\n      jump\t// out\n        /* \"#utility.yul\":4543:4723   */\n    tag_105:\n        /* \"#utility.yul\":4591:4668   */\n      0x4e487b7100000000000000000000000000000000000000000000000000000000\n        /* \"#utility.yul\":4588:4589   */\n      0x00\n        /* \"#utility.yul\":4581:4669   */\n      mstore\n        /* \"#utility.yul\":4688:4692   */\n      0x11\n        /* \"#utility.yul\":4685:4686   */\n      0x04\n        /* \"#utility.yul\":4678:4693   */\n      mstore\n        /* \"#utility.yul\":4712:4716   */\n      0x24\n        /* \"#utility.yul\":4709:4710   */\n      0x00\n        /* \"#utility.yul\":4702:4717   */\n      revert\n        /* \"#utility.yul\":4729:4909   */\n    tag_111:\n        /* \"#utility.yul\":4777:4854   */\n      0x4e487b7100000000000000000000000000000000000000000000000000000000\n        /* \"#utility.yul\":4774:4775   */\n      0x00\n        /* \"#utility.yul\":4767:4855   */\n      mstore\n        /* \"#utility.yul\":4874:4878   */\n      0x12\n        /* \"#utility.yul\":4871:4872   */\n      0x04\n        /* \"#utility.yul\":4864:4879   */\n      mstore\n        /* \"#utility.yul\":4898:4902   */\n      0x24\n        /* \"#utility.yul\":4895:4896   */\n      0x00\n        /* \"#utility.yul\":4888:4903   */\n      revert\n        /* \"#utility.yul\":5038:5155   */\n    tag_74:\n        /* \"#utility.yul\":5147:5148   */\n      0x00\n        /* \"#utility.yul\":5144:5145   */\n      dup1\n        /* \"#utility.yul\":5137:5149   */\n      revert\n        /* \"#utility.yul\":5161:5283   */\n    tag_55:\n        /* \"#utility.yul\":5234:5258   */\n      tag_133\n        /* \"#utility.yul\":5252:5257   */\n      dup2\n        /* \"#utility.yul\":5234:5258   */\n      tag_117\n      jump\t// in\n    tag_133:\n        /* \"#utility.yul\":5227:5232   */\n      dup2\n        /* \"#utility.yul\":5224:5259   */\n      eq\n        /* \"#utility.yul\":5214:5216   */\n      tag_134\n      jumpi\n        /* \"#utility.yul\":5273:5274   */\n      0x00\n        /* \"#utility.yul\":5270:5271   */\n      dup1\n        /* \"#utility.yul\":5263:5275   */\n      revert\n        /* \"#utility.yul\":5214:5216   */\n    tag_134:\n        /* \"#utility.yul\":5204:5283   */\n      pop\n      jump\t// out\n        /* \"#utility.yul\":5289:5409   */\n    tag_59:\n        /* \"#utility.yul\":5361:5384   */\n      tag_136\n        /* \"#utility.yul\":5378:5383   */\n      dup2\n        /* \"#utility.yul\":5361:5384   */\n      tag_121\n      jump\t// in\n    tag_136:\n        /* \"#utility.yul\":5354:5359   */\n      dup2\n        /* \"#utility.yul\":5351:5385   */\n      eq\n        /* \"#utility.yul\":5341:5343   */\n      tag_137\n      jumpi\n        /* \"#utility.yul\":5399:5400   */\n      0x00\n        /* \"#utility.yul\":5396:5397   */\n      dup1\n        /* \"#utility.yul\":5389:5401   */\n      revert\n        /* \"#utility.yul\":5341:5343   */\n    tag_137:\n        /* \"#utility.yul\":5331:5409   */\n      pop\n      jump\t// out\n        /* \"#utility.yul\":5415:5537   */\n    tag_63:\n        /* \"#utility.yul\":5488:5512   */\n      tag_139\n        /* \"#utility.yul\":5506:5511   */\n      dup2\n        /* \"#utility.yul\":5488:5512   */\n      tag_95\n      jump\t// in\n    tag_139:\n        /* \"#utility.yul\":5481:5486   */\n      dup2\n        /* \"#utility.yul\":5478:5513   */\n      eq\n        /* \"#utility.yul\":5468:5470   */\n      tag_140\n      jumpi\n        /* \"#utility.yul\":5527:5528   */\n      0x00\n        /* \"#utility.yul\":5524:5525   */\n      dup1\n        /* \"#utility.yul\":5517:5529   */\n      revert\n        /* \"#utility.yul\":5468:5470   */\n    tag_140:\n        /* \"#utility.yul\":5458:5537   */\n      pop\n      jump\t// out\n        /* \"#utility.yul\":5543:5663   */\n    tag_70:\n        /* \"#utility.yul\":5615:5638   */\n      tag_142\n        /* \"#utility.yul\":5632:5637   */\n      dup2\n        /* \"#utility.yul\":5615:5638   */\n      tag_125\n      jump\t// in\n    tag_142:\n        /* \"#utility.yul\":5608:5613   */\n      dup2\n        /* \"#utility.yul\":5605:5639   */\n      eq\n        /* \"#utility.yul\":5595:5597   */\n      tag_143\n      jumpi\n        /* \"#utility.yul\":5653:5654   */\n      0x00\n        /* \"#utility.yul\":5650:5651   */\n      dup1\n        /* \"#utility.yul\":5643:5655   */\n      revert\n        /* \"#utility.yul\":5595:5597   */\n    tag_143:\n        /* \"#utility.yul\":5585:5663   */\n      pop\n      jump\t// out\n\n    auxdata: 0xa264697066735822122082edac2ed1309c3bf21df4b8722cb6a203d5625eb0965abcff60ea3327e449ae64736f6c63430008060033\n}\n",
				"bytecode": {
					"linkReferences": {},
					"object": "608060405234801561001057600080fd5b506106df806100206000396000f3fe60806040526004361061004a5760003560e01c80630d8e6e2c1461004f5780633e47d6f31461007a5780636ce0a812146100b757806398d5fdca146100f4578063b60d42881461011f575b600080fd5b34801561005b57600080fd5b50610064610129565b6040516100719190610492565b60405180910390f35b34801561008657600080fd5b506100a1600480360381019061009c9190610381565b6101c7565b6040516100ae9190610492565b60405180910390f35b3480156100c357600080fd5b506100de60048036038101906100d991906103ae565b6101df565b6040516100eb9190610492565b60405180910390f35b34801561010057600080fd5b50610109610219565b6040516101169190610492565b60405180910390f35b6101276102c1565b005b600080738a753747a1fa494ec906ce90e9f37563a8af630e90508073ffffffffffffffffffffffffffffffffffffffff166354fd4d506040518163ffffffff1660e01b815260040160206040518083038186803b15801561018957600080fd5b505afa15801561019d573d6000803e3d6000fd5b505050506040513d601f19601f820116820180604052508101906101c191906103db565b91505090565b60006020528060005260406000206000915090505481565b6000806101ea610219565b90506000670de0b6b3a764000084836102039190610534565b61020d9190610503565b90508092505050919050565b600080738a753747a1fa494ec906ce90e9f37563a8af630e905060008173ffffffffffffffffffffffffffffffffffffffff1663feaf968c6040518163ffffffff1660e01b815260040160a06040518083038186803b15801561027b57600080fd5b505afa15801561028f573d6000803e3d6000fd5b505050506040513d601f19601f820116820180604052508101906102b39190610408565b505050915050809250505090565b346000803373ffffffffffffffffffffffffffffffffffffffff1673ffffffffffffffffffffffffffffffffffffffff168152602001908152602001600020600082825461030f91906104ad565b92505081905550565b6000813590506103278161064d565b92915050565b60008151905061033c81610664565b92915050565b6000813590506103518161067b565b92915050565b6000815190506103668161067b565b92915050565b60008151905061037b81610692565b92915050565b60006020828403121561039757610396610648565b5b60006103a584828501610318565b91505092915050565b6000602082840312156103c4576103c3610648565b5b60006103d284828501610342565b91505092915050565b6000602082840312156103f1576103f0610648565b5b60006103ff84828501610357565b91505092915050565b600080600080600060a0868803121561042457610423610648565b5b60006104328882890161036c565b95505060206104438882890161032d565b945050604061045488828901610357565b935050606061046588828901610357565b92505060806104768882890161036c565b9150509295509295909350565b61048c816105ca565b82525050565b60006020820190506104a76000830184610483565b92915050565b60006104b8826105ca565b91506104c3836105ca565b9250827fffffffffffffffffffffffffffffffffffffffffffffffffffffffffffffffff038211156104f8576104f76105ea565b5b828201905092915050565b600061050e826105ca565b9150610519836105ca565b92508261052957610528610619565b5b828204905092915050565b600061053f826105ca565b915061054a836105ca565b9250817fffffffffffffffffffffffffffffffffffffffffffffffffffffffffffffffff0483118215151615610583576105826105ea565b5b828202905092915050565b6000610599826105aa565b9050919050565b6000819050919050565b600073ffffffffffffffffffffffffffffffffffffffff82169050919050565b6000819050919050565b600069ffffffffffffffffffff82169050919050565b7f4e487b7100000000000000000000000000000000000000000000000000000000600052601160045260246000fd5b7f4e487b7100000000000000000000000000000000000000000000000000000000600052601260045260246000fd5b600080fd5b6106568161058e565b811461066157600080fd5b50565b61066d816105a0565b811461067857600080fd5b50565b610684816105ca565b811461068f57600080fd5b50565b61069b816105d4565b81146106a657600080fd5b5056fea264697066735822122082edac2ed1309c3bf21df4b8722cb6a203d5625eb0965abcff60ea3327e449ae64736f6c63430008060033",
					"opcodes": "PUSH1 0x80 PUSH1 0x40 MSTORE CALLVALUE DUP1 ISZERO PUSH2 0x10 JUMPI PUSH1 0x0 DUP1 REVERT JUMPDEST POP PUSH2 0x6DF DUP1 PUSH2 0x20 PUSH1 0x0 CODECOPY PUSH1 0x0 RETURN INVALID PUSH1 0x80 PUSH1 0x40 MSTORE PUSH1 0x4 CALLDATASIZE LT PUSH2 0x4A JUMPI PUSH1 0x0 CALLDATALOAD PUSH1 0xE0 SHR DUP1 PUSH4 0xD8E6E2C EQ PUSH2 0x4F JUMPI DUP1 PUSH4 0x3E47D6F3 EQ PUSH2 0x7A JUMPI DUP1 PUSH4 0x6CE0A812 EQ PUSH2 0xB7 JUMPI DUP1 PUSH4 0x98D5FDCA EQ PUSH2 0xF4 JUMPI DUP1 PUSH4 0xB60D4288 EQ PUSH2 0x11F JUMPI JUMPDEST PUSH1 0x0 DUP1 REVERT JUMPDEST CALLVALUE DUP1 ISZERO PUSH2 0x5B JUMPI PUSH1 0x0 DUP1 REVERT JUMPDEST POP PUSH2 0x64 PUSH2 0x129 JUMP JUMPDEST PUSH1 0x40 MLOAD PUSH2 0x71 SWAP2 SWAP1 PUSH2 0x492 JUMP JUMPDEST PUSH1 0x40 MLOAD DUP1 SWAP2 SUB SWAP1 RETURN JUMPDEST CALLVALUE DUP1 ISZERO PUSH2 0x86 JUMPI PUSH1 0x0 DUP1 REVERT JUMPDEST POP PUSH2 0xA1 PUSH1 0x4 DUP1 CALLDATASIZE SUB DUP2 ADD SWAP1 PUSH2 0x9C SWAP2 SWAP1 PUSH2 0x381 JUMP JUMPDEST PUSH2 0x1C7 JUMP JUMPDEST PUSH1 0x40 MLOAD PUSH2 0xAE SWAP2 SWAP1 PUSH2 0x492 JUMP JUMPDEST PUSH1 0x40 MLOAD DUP1 SWAP2 SUB SWAP1 RETURN JUMPDEST CALLVALUE DUP1 ISZERO PUSH2 0xC3 JUMPI PUSH1 0x0 DUP1 REVERT JUMPDEST POP PUSH2 0xDE PUSH1 0x4 DUP1 CALLDATASIZE SUB DUP2 ADD SWAP1 PUSH2 0xD9 SWAP2 SWAP1 PUSH2 0x3AE JUMP JUMPDEST PUSH2 0x1DF JUMP JUMPDEST PUSH1 0x40 MLOAD PUSH2 0xEB SWAP2 SWAP1 PUSH2 0x492 JUMP JUMPDEST PUSH1 0x40 MLOAD DUP1 SWAP2 SUB SWAP1 RETURN JUMPDEST CALLVALUE DUP1 ISZERO PUSH2 0x100 JUMPI PUSH1 0x0 DUP1 REVERT JUMPDEST POP PUSH2 0x109 PUSH2 0x219 JUMP JUMPDEST PUSH1 0x40 MLOAD PUSH2 0x116 SWAP2 SWAP1 PUSH2 0x492 JUMP JUMPDEST PUSH1 0x40 MLOAD DUP1 SWAP2 SUB SWAP1 RETURN JUMPDEST PUSH2 0x127 PUSH2 0x2C1 JUMP JUMPDEST STOP JUMPDEST PUSH1 0x0 DUP1 PUSH20 0x8A753747A1FA494EC906CE90E9F37563A8AF630E SWAP1 POP DUP1 PUSH20 0xFFFFFFFFFFFFFFFFFFFFFFFFFFFFFFFFFFFFFFFF AND PUSH4 0x54FD4D50 PUSH1 0x40 MLOAD DUP2 PUSH4 0xFFFFFFFF AND PUSH1 0xE0 SHL DUP2 MSTORE PUSH1 0x4 ADD PUSH1 0x20 PUSH1 0x40 MLOAD DUP1 DUP4 SUB DUP2 DUP7 DUP1 EXTCODESIZE ISZERO DUP1 ISZERO PUSH2 0x189 JUMPI PUSH1 0x0 DUP1 REVERT JUMPDEST POP GAS STATICCALL ISZERO DUP1 ISZERO PUSH2 0x19D JUMPI RETURNDATASIZE PUSH1 0x0 DUP1 RETURNDATACOPY RETURNDATASIZE PUSH1 0x0 REVERT JUMPDEST POP POP POP POP PUSH1 0x40 MLOAD RETURNDATASIZE PUSH1 0x1F NOT PUSH1 0x1F DUP3 ADD AND DUP3 ADD DUP1 PUSH1 0x40 MSTORE POP DUP2 ADD SWAP1 PUSH2 0x1C1 SWAP2 SWAP1 PUSH2 0x3DB JUMP JUMPDEST SWAP2 POP POP SWAP1 JUMP JUMPDEST PUSH1 0x0 PUSH1 0x20 MSTORE DUP1 PUSH1 0x0 MSTORE PUSH1 0x40 PUSH1 0x0 KECCAK256 PUSH1 0x0 SWAP2 POP SWAP1 POP SLOAD DUP2 JUMP JUMPDEST PUSH1 0x0 DUP1 PUSH2 0x1EA PUSH2 0x219 JUMP JUMPDEST SWAP1 POP PUSH1 0x0 PUSH8 0xDE0B6B3A7640000 DUP5 DUP4 PUSH2 0x203 SWAP2 SWAP1 PUSH2 0x534 JUMP JUMPDEST PUSH2 0x20D SWAP2 SWAP1 PUSH2 0x503 JUMP JUMPDEST SWAP1 POP DUP1 SWAP3 POP POP POP SWAP2 SWAP1 POP JUMP JUMPDEST PUSH1 0x0 DUP1 PUSH20 0x8A753747A1FA494EC906CE90E9F37563A8AF630E SWAP1 POP PUSH1 0x0 DUP2 PUSH20 0xFFFFFFFFFFFFFFFFFFFFFFFFFFFFFFFFFFFFFFFF AND PUSH4 0xFEAF968C PUSH1 0x40 MLOAD DUP2 PUSH4 0xFFFFFFFF AND PUSH1 0xE0 SHL DUP2 MSTORE PUSH1 0x4 ADD PUSH1 0xA0 PUSH1 0x40 MLOAD DUP1 DUP4 SUB DUP2 DUP7 DUP1 EXTCODESIZE ISZERO DUP1 ISZERO PUSH2 0x27B JUMPI PUSH1 0x0 DUP1 REVERT JUMPDEST POP GAS STATICCALL ISZERO DUP1 ISZERO PUSH2 0x28F JUMPI RETURNDATASIZE PUSH1 0x0 DUP1 RETURNDATACOPY RETURNDATASIZE PUSH1 0x0 REVERT JUMPDEST POP POP POP POP PUSH1 0x40 MLOAD RETURNDATASIZE PUSH1 0x1F NOT PUSH1 0x1F DUP3 ADD AND DUP3 ADD DUP1 PUSH1 0x40 MSTORE POP DUP2 ADD SWAP1 PUSH2 0x2B3 SWAP2 SWAP1 PUSH2 0x408 JUMP JUMPDEST POP POP POP SWAP2 POP POP DUP1 SWAP3 POP POP POP SWAP1 JUMP JUMPDEST CALLVALUE PUSH1 0x0 DUP1 CALLER PUSH20 0xFFFFFFFFFFFFFFFFFFFFFFFFFFFFFFFFFFFFFFFF AND PUSH20 0xFFFFFFFFFFFFFFFFFFFFFFFFFFFFFFFFFFFFFFFF AND DUP2 MSTORE PUSH1 0x20 ADD SWAP1 DUP2 MSTORE PUSH1 0x20 ADD PUSH1 0x0 KECCAK256 PUSH1 0x0 DUP3 DUP3 SLOAD PUSH2 0x30F SWAP2 SWAP1 PUSH2 0x4AD JUMP JUMPDEST SWAP3 POP POP DUP2 SWAP1 SSTORE POP JUMP JUMPDEST PUSH1 0x0 DUP2 CALLDATALOAD SWAP1 POP PUSH2 0x327 DUP2 PUSH2 0x64D JUMP JUMPDEST SWAP3 SWAP2 POP POP JUMP JUMPDEST PUSH1 0x0 DUP2 MLOAD SWAP1 POP PUSH2 0x33C DUP2 PUSH2 0x664 JUMP JUMPDEST SWAP3 SWAP2 POP POP JUMP JUMPDEST PUSH1 0x0 DUP2 CALLDATALOAD SWAP1 POP PUSH2 0x351 DUP2 PUSH2 0x67B JUMP JUMPDEST SWAP3 SWAP2 POP POP JUMP JUMPDEST PUSH1 0x0 DUP2 MLOAD SWAP1 POP PUSH2 0x366 DUP2 PUSH2 0x67B JUMP JUMPDEST SWAP3 SWAP2 POP POP JUMP JUMPDEST PUSH1 0x0 DUP2 MLOAD SWAP1 POP PUSH2 0x37B DUP2 PUSH2 0x692 JUMP JUMPDEST SWAP3 SWAP2 POP POP JUMP JUMPDEST PUSH1 0x0 PUSH1 0x20 DUP3 DUP5 SUB SLT ISZERO PUSH2 0x397 JUMPI PUSH2 0x396 PUSH2 0x648 JUMP JUMPDEST JUMPDEST PUSH1 0x0 PUSH2 0x3A5 DUP5 DUP3 DUP6 ADD PUSH2 0x318 JUMP JUMPDEST SWAP2 POP POP SWAP3 SWAP2 POP POP JUMP JUMPDEST PUSH1 0x0 PUSH1 0x20 DUP3 DUP5 SUB SLT ISZERO PUSH2 0x3C4 JUMPI PUSH2 0x3C3 PUSH2 0x648 JUMP JUMPDEST JUMPDEST PUSH1 0x0 PUSH2 0x3D2 DUP5 DUP3 DUP6 ADD PUSH2 0x342 JUMP JUMPDEST SWAP2 POP POP SWAP3 SWAP2 POP POP JUMP JUMPDEST PUSH1 0x0 PUSH1 0x20 DUP3 DUP5 SUB SLT ISZERO PUSH2 0x3F1 JUMPI PUSH2 0x3F0 PUSH2 0x648 JUMP JUMPDEST JUMPDEST PUSH1 0x0 PUSH2 0x3FF DUP5 DUP3 DUP6 ADD PUSH2 0x357 JUMP JUMPDEST SWAP2 POP POP SWAP3 SWAP2 POP POP JUMP JUMPDEST PUSH1 0x0 DUP1 PUSH1 0x0 DUP1 PUSH1 0x0 PUSH1 0xA0 DUP7 DUP9 SUB SLT ISZERO PUSH2 0x424 JUMPI PUSH2 0x423 PUSH2 0x648 JUMP JUMPDEST JUMPDEST PUSH1 0x0 PUSH2 0x432 DUP9 DUP3 DUP10 ADD PUSH2 0x36C JUMP JUMPDEST SWAP6 POP POP PUSH1 0x20 PUSH2 0x443 DUP9 DUP3 DUP10 ADD PUSH2 0x32D JUMP JUMPDEST SWAP5 POP POP PUSH1 0x40 PUSH2 0x454 DUP9 DUP3 DUP10 ADD PUSH2 0x357 JUMP JUMPDEST SWAP4 POP POP PUSH1 0x60 PUSH2 0x465 DUP9 DUP3 DUP10 ADD PUSH2 0x357 JUMP JUMPDEST SWAP3 POP POP PUSH1 0x80 PUSH2 0x476 DUP9 DUP3 DUP10 ADD PUSH2 0x36C JUMP JUMPDEST SWAP2 POP POP SWAP3 SWAP6 POP SWAP3 SWAP6 SWAP1 SWAP4 POP JUMP JUMPDEST PUSH2 0x48C DUP2 PUSH2 0x5CA JUMP JUMPDEST DUP3 MSTORE POP POP JUMP JUMPDEST PUSH1 0x0 PUSH1 0x20 DUP3 ADD SWAP1 POP PUSH2 0x4A7 PUSH1 0x0 DUP4 ADD DUP5 PUSH2 0x483 JUMP JUMPDEST SWAP3 SWAP2 POP POP JUMP JUMPDEST PUSH1 0x0 PUSH2 0x4B8 DUP3 PUSH2 0x5CA JUMP JUMPDEST SWAP2 POP PUSH2 0x4C3 DUP4 PUSH2 0x5CA JUMP JUMPDEST SWAP3 POP DUP3 PUSH32 0xFFFFFFFFFFFFFFFFFFFFFFFFFFFFFFFFFFFFFFFFFFFFFFFFFFFFFFFFFFFFFFFF SUB DUP3 GT ISZERO PUSH2 0x4F8 JUMPI PUSH2 0x4F7 PUSH2 0x5EA JUMP JUMPDEST JUMPDEST DUP3 DUP3 ADD SWAP1 POP SWAP3 SWAP2 POP POP JUMP JUMPDEST PUSH1 0x0 PUSH2 0x50E DUP3 PUSH2 0x5CA JUMP JUMPDEST SWAP2 POP PUSH2 0x519 DUP4 PUSH2 0x5CA JUMP JUMPDEST SWAP3 POP DUP3 PUSH2 0x529 JUMPI PUSH2 0x528 PUSH2 0x619 JUMP JUMPDEST JUMPDEST DUP3 DUP3 DIV SWAP1 POP SWAP3 SWAP2 POP POP JUMP JUMPDEST PUSH1 0x0 PUSH2 0x53F DUP3 PUSH2 0x5CA JUMP JUMPDEST SWAP2 POP PUSH2 0x54A DUP4 PUSH2 0x5CA JUMP JUMPDEST SWAP3 POP DUP2 PUSH32 0xFFFFFFFFFFFFFFFFFFFFFFFFFFFFFFFFFFFFFFFFFFFFFFFFFFFFFFFFFFFFFFFF DIV DUP4 GT DUP3 ISZERO ISZERO AND ISZERO PUSH2 0x583 JUMPI PUSH2 0x582 PUSH2 0x5EA JUMP JUMPDEST JUMPDEST DUP3 DUP3 MUL SWAP1 POP SWAP3 SWAP2 POP POP JUMP JUMPDEST PUSH1 0x0 PUSH2 0x599 DUP3 PUSH2 0x5AA JUMP JUMPDEST SWAP1 POP SWAP2 SWAP1 POP JUMP JUMPDEST PUSH1 0x0 DUP2 SWAP1 POP SWAP2 SWAP1 POP JUMP JUMPDEST PUSH1 0x0 PUSH20 0xFFFFFFFFFFFFFFFFFFFFFFFFFFFFFFFFFFFFFFFF DUP3 AND SWAP1 POP SWAP2 SWAP1 POP JUMP JUMPDEST PUSH1 0x0 DUP2 SWAP1 POP SWAP2 SWAP1 POP JUMP JUMPDEST PUSH1 0x0 PUSH10 0xFFFFFFFFFFFFFFFFFFFF DUP3 AND SWAP1 POP SWAP2 SWAP1 POP JUMP JUMPDEST PUSH32 0x4E487B7100000000000000000000000000000000000000000000000000000000 PUSH1 0x0 MSTORE PUSH1 0x11 PUSH1 0x4 MSTORE PUSH1 0x24 PUSH1 0x0 REVERT JUMPDEST PUSH32 0x4E487B7100000000000000000000000000000000000000000000000000000000 PUSH1 0x0 MSTORE PUSH1 0x12 PUSH1 0x4 MSTORE PUSH1 0x24 PUSH1 0x0 REVERT JUMPDEST PUSH1 0x0 DUP1 REVERT JUMPDEST PUSH2 0x656 DUP2 PUSH2 0x58E JUMP JUMPDEST DUP2 EQ PUSH2 0x661 JUMPI PUSH1 0x0 DUP1 REVERT JUMPDEST POP JUMP JUMPDEST PUSH2 0x66D DUP2 PUSH2 0x5A0 JUMP JUMPDEST DUP2 EQ PUSH2 0x678 JUMPI PUSH1 0x0 DUP1 REVERT JUMPDEST POP JUMP JUMPDEST PUSH2 0x684 DUP2 PUSH2 0x5CA JUMP JUMPDEST DUP2 EQ PUSH2 0x68F JUMPI PUSH1 0x0 DUP1 REVERT JUMPDEST POP JUMP JUMPDEST PUSH2 0x69B DUP2 PUSH2 0x5D4 JUMP JUMPDEST DUP2 EQ PUSH2 0x6A6 JUMPI PUSH1 0x0 DUP1 REVERT JUMPDEST POP JUMP INVALID LOG2 PUSH5 0x6970667358 0x22 SLT KECCAK256 DUP3 0xED 0xAC 0x2E 0xD1 ADDRESS SWAP13 EXTCODESIZE CALLCODE SAR DELEGATECALL 0xB8 PUSH19 0x2CB6A203D5625EB0965ABCFF60EA3327E449AE PUSH5 0x736F6C6343 STOP ADDMOD MOD STOP CALLER "
				},
				"gasEstimates": {
					"creation": {
						"codeDepositCost": "351800",
						"executionCost": "386",
						"totalCost": "352186"
					},
					"external": {
						"addressToAmountFunded(address)": "2814",
						"fund()": "infinite",
						"getPrice()": "infinite",
						"getVersion()": "infinite",
						"gretConversionRate(uint256)": "infinite"
					}
				},
				"methodIdentifiers": {
					"addressToAmountFunded(address)": "3e47d6f3",
					"fund()": "b60d4288",
					"getPrice()": "98d5fdca",
					"getVersion()": "0d8e6e2c",
					"gretConversionRate(uint256)": "6ce0a812"
				}
			},
			"storageLayout": {
				"storage": [
					{
						"astId": 52,
						"contract": "Fund_Me.sol:FundMe",
						"label": "addressToAmountFunded",
						"offset": 0,
						"slot": "0",
						"type": "t_mapping(t_address,t_uint256)"
					}
				],
				"types": {
					"t_address": {
						"encoding": "inplace",
						"label": "address",
						"numberOfBytes": "20"
					},
					"t_mapping(t_address,t_uint256)": {
						"encoding": "mapping",
						"key": "t_address",
						"label": "mapping(address => uint256)",
						"numberOfBytes": "32",
						"value": "t_uint256"
					},
					"t_uint256": {
						"encoding": "inplace",
						"label": "uint256",
						"numberOfBytes": "32"
					}
				}
			},
			"userdoc": {
				"kind": "user",
				"methods": {},
				"version": 1
			}
		}
	}
}